S00F000061726475696E6F2E7372656323
S11300000C9435000C945D000C945D000C945D0020
S11300100C945D000C945D000C945D000C945D00E8
S11300200C945D000C945D000C945D000C94170A14
S11300300C945D000C945D000C945D000C945D00C8
S11300400C94BF010C945D000C9472030C94A403F3
S11300500C945D000C945D000C945D000C945D00A8
S11300600C945D000C945D00CA0311241FBECFEFF5
S1130070D8E0DEBFCDBF12E0A0E0B1E0E4E9FAE1F0
S113008002C005900D92A437B107D9F723E0A4E785
S1130090B2E001C01D92A633B207E1F710E0C5E358
S11300A0D0E004C02197FE010E94610AC433D10745
S11300B0C9F70E949D010C94480D0C94130A00008A
S11300C02F923F924F925F926F927F928F929F9264
S11300D0AF92BF92CF92DF92EF92FF920F931F9352
S11300E0CF93DF93E42FF52F419050804F925F928E
S11300F0E42FF52F4DB65EB6419250820C948000E9
S1130100E62FF72F419050804DBE5EBE5F904F901A
S1130110E62FF72F41925082DF91CF911F910F91DB
S1130120FF90EF90DF90CF90BF90AF909F908F9013
S11301307F906F905F904F903F902F900C94AB0501
S1130140E62FF72F419150814DBF5EBF0C94B4054B
S11301502F923F924F925F926F927F928F929F92D3
S1130160AF92BF92CF92DF92EF92FF920F931F93C1
S1130170CF93DF93E42FF52F419050804F925F92FD
S1130180E42FF52F4DB65EB6419250820C94A00038
S1130190E82FF92F419150814DBF5EBFE62FF72F15
S11301A00994000080E00C947C058EE491E09F9318
S11301B08F930E9465010F900F9080E492E4AFE06A
S11301C0B0E0409178025091790260917A02709186
S11301D07B024F5F5F4F6F4F7F4F40937802509386
S11301E0790260937A0270937B020197A109B109A5
S11301F041F78FE591E09F938F930E946501809171
S1130200780290917902A0917A02B0917B02BF9317
S1130210AF939F938F9388E791E09F938F930E946E
S1130220650187E891E09F938F930E9465018DB7E4
S11302309EB70A960FB6F8949EBF0FBE8DBF0C945E
S113024062058091740290917502A0917602B0913A
S11302507702883E23E09207A105B10540F580911D
S1130260780290917902A0917A02B0917B02019672
S1130270A11DB11D8093780290937902A0937A0214
S1130280B0937B028091740290917502A0917602E2
S1130290B09177020196A11DB11D809374029093D1
S11302A07502A0937602B09377020C946205883E9F
S11302B09340A105B10531F78AE991E09F938F93AB
S11302C00E9465010F900F90DDCFCF93DF93CDB7E0
S11302D0DEB7C058D1090FB6F894DEBF0FBECDBF4C
S11302E09E012B573F4FF901419151919F0160E8C5
S11302F070E0CE0101960E94670ABE016F5F7F4FD6
S113030088E992E00E943304C058DF4F0FB6F89496
S1130310DEBF0FBECDBFDF91CF91089526E040E848
S113032055E260E070E088E992E00E94100368EE14
S113033073E080E090E00C943B040E9409020E9468
S11303408E0180EB91E09F938F930E94650182EC74
S113035091E09F938F930E94650181EB91E09F93BD
S11303608F930E94650180E00E9499040F900F9082
S11303700F900F900F900F9090E080E008951F92DF
S11303800F920FB60F9211242F933F938F939F9345
S1130390AF93BF938091900290919102A0919202A9
S11303A0B091930230918F0223E0230F2D3758F53B
S11303B00196A11DB11D20938F028093900290930A
S11303C09102A0939202B09393028091940290912F
S11303D09502A0919602B09197020196A11DB11DBC
S11303E08093940290939502A0939602B0939702FF
S11303F0BF91AF919F918F913F912F910F900FBE1D
S11304000F901F90189526E8230F0296A11DB11D89
S1130410D2CF789484B5826084BD84B5816084BD74
S113042085B5826085BD85B5816085BDEEE6F0E069
S1130430808181608083E1E8F0E0108280818260C5
S11304408083808181608083E0E8F0E08081816046
S11304508083E1EBF0E0808184608083E0EBF0E076
S1130460808181608083EAE7F0E08081846080831A
S113047080818260808380818160808380818068C4
S113048080831092C1000895FC01918D228D892FE3
S113049090E0805C9F4F821B91098F739927089588
S11304A0FC01918D828D981731F0828DE80FF11D3A
S11304B0858D90E008958FEF9FEF0895FC01918D55
S11304C0828D981761F0A28DAE0FBF2FB11D5D967E
S11304D08C91928D9F5F9F73928F90E008958FEF20
S11304E09FEF0895FC01538D448D252F30E0842F18
S11304F090E0821B930B541710F0CF960895019748
S11305000895FC01A48DA80FB92FB11DA35ABF4FA4
S11305102C91848D90E001968F739927848FA689FE
S1130520B7892C93A089B1898C91837080648C9352
S1130530938D848D981306C00288F389E02D808101
S11305408F7D80830895CF93DF93EC01888D88237A
S1130550B9F0AA89BB89E889F9898C9185FD03C022
S1130560808186FD0DC00FB607FCF7CF8C9185FF07
S1130570F2CF808185FFEDCFCE010E948102E9CFC9
S1130580DF91CF910895EF92FF920F931F93CF9332
S1130590DF93EC0181E0888F9B8D8C8D98131AC0BA
S11305A0E889F989808185FF15C09FB7F894EE89A1
S11305B0FF896083E889F9898081837080648083FE
S11305C09FBF81E090E0DF91CF911F910F91FF9049
S11305D0EF900895F62E0B8D10E00F5F1F4F0F73F1
S11305E01127E02E8C8D8E110CC00FB607FCFACFAC
S11305F0E889F989808185FFF5CFCE010E948102C7
S1130600F1CFEB8DEC0FFD2FF11DE35AFF4FF0827C
S11306109FB7F8940B8FEA89FB8980818062CFCFE2
S1130620CF92DF92EF92FF921F93CF93DF93EC016F
S11306306A017B01122FE889F98982E08083C11461
S113064081EED806E104F104A1F060E079E08DE3E5
S113065090E0A70196010E943F0A21503109410907
S113066051095695479537952795211580E1380707
S113067098F0E889F989108260E874E88EE190E0E6
S1130680A70196010E943F0A2150310941095109ED
S11306905695479537952795EC85FD853083EE85EE
S11306A0FF852083188EEC89FD891083EA89FB89F4
S11306B0808180618083EA89FB898081886080836E
S11306C0EA89FB89808180688083EA89FB8980814B
S11306D08F7D8083DF91CF911F91FF90EF90DF900A
S11306E0CF9008951F920F920FB60F9211242F935B
S11306F08F939F93EF93FF93E091A802F091A90247
S11307008081E091AE02F091AF0282FD1BC0908126
S11307108091B1028F5F8F732091B202821741F0F2
S1130720E091B102F0E0E856FD4F958F8093B1025D
S1130730FF91EF919F918F912F910F900FBE0F908A
S11307401F9018958081F4CF1F920F920FB60F92CD
S113075011242F933F934F935F936F937F938F93C2
S11307609F93AF93BF93EF93FF9388E992E00E9426
S11307708102FF91EF91BF91AF919F918F917F91F2
S11307806F915F914F913F912F910F900FBE0F90FA
S11307901F901895E8E9F2E01382128288EE93E044
S11307A0A0E0B0E084839583A683B78386E692E0D5
S11307B09183808385EC90E09587848784EC90E036
S11307C09787868780EC90E0918B808B81EC90E01A
S11307D0938B828B82EC90E0958B848B86EC90E0FB
S11307E0978B868B118E128E138E148E0895AF9272
S11307F0BF92CF92DF92EF92FF920F931F93CF930A
S1130800DF936C017B018B01040F151FEB015E016B
S1130810AE18BF08C017D10759F06991D601ED9100
S1130820FC910190F081E02DC6010995892B79F79F
S1130830C501DF91CF911F910F91FF90EF90DF9051
S1130840CF90BF90AF900895FB0101900020E9F78D
S11308503197AF01461B570BDC01ED91FC910280EF
S1130860F381E02D09946115710511F00C942404B1
S113087090E080E008951092810010928000109220
S113088082001092850010928400611520E17207A5
S113089081059105A0F4E4E0660F771FEA95E1F77E
S11308A06150710981E092E096BB90936F00709360
S11308B089006093880088608093810008956115A1
S11308C020E872078105910530F4660F771F6150A7
S11308D0710982E0E8CF6C3F2FEF720723E08207B3
S11308E0910558F442E096958795779567954A95D2
S11308F0D1F76150710983E0D6CF6115710520E10C
S11309008207910558F434E0969587957795679515
S11309103A95D1F76150710984E0C5CF26E09695E8
S11309208795779567952A95D1F76150710985E088
S1130930BACF4F925F926F927F928F929F92AF92B3
S1130940BF92CF92DF92EF92FF920F931F93CF93B8
S1130950DF9300D0CDB7DEB70091E5011091E60139
S11309609FB7F894D80118962D913C91232BB1F0A0
S11309709FBF81E090E00F900F90DF91CF911F9186
S11309800F91FF90EF90DF90CF90BF90AF909F902A
S11309908F907F906F905F904F90089525E13AE09B
S11309A03A832983C090E701D090E80121E030E048
S11309B0F8013187208782876090ED017090EE0105
S11309C0F4E08F9F700111246E0C7F1CD3011296EA
S11309D08D909C90B12CA12C46E0542EA814B904FF
S11309E091F54090E9015090EA015801E2E0AE0E21
S11309F0B11C4E0C5F1CD20112966D907C90F12CB0
S1130A00E12C88248394912CE614F704B1F5F801C1
S1130A1080859185019721F482E090E09187808719
S1130A20D80118968D919C91029751F4F601628138
S1130A307381AB01C6010E94A800C6010E94E906A9
S1130A4090E080E098CFD301ED91FC915A9CC001D5
S1130A505B9C900D1124E80FF91FA081B1812481C2
S1130A60358142815381BD0112968D919C910E94E2
S1130A708209BFEFAB1ABB0AB1CFD201ED91FC9151
S1130A80C701880F991FE80FF91F40815181DA01CE
S1130A901496ED91FC9180818F5F80839382828292
S1130AA0F80164817581DB018D919C911197958387
S1130AB084831D921C92C5010E94A806BFEFEB1A05
S1130AC0FB0AA2CFE091E501F091E601A081B1819A
S1130AD08785882319F0178685858FBF81898823A8
S1130AE011F0118A78948FB7F8946DEF79E012962B
S1130AF08D919C910E94C800CF9390E02091DF01DA
S1130B003091E0018217930718F52091DD013091AF
S1130B10DE01880F991F820F931FFC018081918150
S1130B20CFB7F8940E94BC08E091E501F091E6018A
S1130B300190F081E02D87819085029720F483ED68
S1130B4091E00E94F607CFBF90E080E0CF91089536
S1130B5083E090E0FBCFDC011496ED91FC9184E0FE
S1130B6090E0938382830895EC01EC81FD8181817F
S1130B7024E030E0338322838F3F09F07894E985C1
S1130B80FA850995E091E501F091E601108A8785DF
S1130B90882319F0178685858FBF8189882311F0F2
S1130BA0118A78948FB7F8948F819885EC81FD81B0
S1130BB0029709F5A481B581109731F46DEF79E0BE
S1130BC08A819B810E94C8000D90BC91A02D14962F
S1130BD01C921E9213978D919C9195838483EACFE6
S1130BE00D90BC91A02D14961C921E9213978D917A
S1130BF09C9195838483A481B581109789F7DECF76
S1130C00CF93CFB7F89483ED91E00E94F607CFBF5E
S1130C10E091E501F091E601808591850297E1F389
S1130C208091E7019091E801CF910C94E2090F9330
S1130C301F93CF93DF93EC01A881B981EB01E88185
S1130C40F9811696CD91DC9117972097C1F18A818D
S1130C509B81309709F43FC0EC010C811D812281F6
S1130C603381E9014C815D81E8013981EA012981FF
S1130C70321788F522E030E0E8013B832A832081A3
S1130C803181EB0139832883C281D3812C813D8159
S1130C9016964D915C911797518340831796FC9358
S1130CA0EE931697CD93DC934C85F901518154173B
S1130CB008F44183DF91CF911F910F9108953097EC
S1130CC051F0EC018A819B81EC014C815D8122E031
S1130CD030E0EA01D2CF90E080E0ECCFCF93DF9315
S1130CE0DB011296ED91FC9141155105A1F023858C
S1130CF0DC01ED91FC91B0E0A0E0309789F410970D
S1130D0009F16D937C9390E080E0DB01ED93FC931B
S1130D10DF91CF9108950480F581E02D2181E8CF02
S1130D20C281D3814115510541F03B85321738F317
S1130D30DF010190F081E02DE0CF0C80DD81C02D3A
S1130D403981F4CFDC016D937C9381E090E0DDCFB9
S1130D50FB015383428341E050E00C946E06EF9212
S1130D60FF920F931F93CF93DF938C01FC01C081FB
S1130D70D181EE80FF80F701808191819F838E83F2
S1130D80C8010E941706892B41F4EE81FF81309738
S1130D9061F08281938199838883C701DF91CF9128
S1130DA01F910F91FF90EF900895F801F2CFDC01AD
S1130DB01496ED91FC91159790811D968C9198173E
S1130DC028F49F5F908390E080E0089584E090E0B1
S1130DD00895DC011496ED91FC9115971B968C9166
S1130DE08183808181508083811103C013821282A8
S1130DF0089581E090E0938382830895DC01149642
S1130E00ED91FC9180859185862B972B9187808726
S1130E10DA011D921C928681978168237923672BBE
S1130E2039F082859385009729F0138612860895F8
S1130E3090E080E00895E091D501F091D60190E032
S1130E40880F991FE80FF91F60817181DB011496E7
S1130E50ED91FC9180818F5F808350E040E083EDD1
S1130E6091E00C941108AB01FB01A481B581E091E0
S1130E70E501F091E60112968D919C911397892BCF
S1130E8051F481E090E013969C938E9312971996F7
S1130E901C921E921897A481B5818D919C911197F3
S1130EA09583848311961C921E92BD01CF010296F4
S1130EB00C94A8060F931F93CF93DF93DB01129634
S1130EC04D915C91FA01C481D5810091E5011091A5
S1130ED0E60182E090E09B838A8383858983C8014D
S1130EE002960E94A806019791F4D801ED91FC9115
S1130EF00480F581E02D81E090E039812181231780
S1130F0008F080E0DF91CF911F910F91089580E068
S1130F1090E0F8CFAF92BF92CF92DF92EF92FF9220
S1130F200F931F93CF93DF93C091E501D091E60116
S1130F30FE01E190F1906F01F70104811581FB013D
S1130F40F182E082F80182819381049731F5B60140
S1130F5085EE91E00E94AF065C01C880D980EC1454
S1130F60FD04B1F0C7010E94E9068C819D81F50161
S1130F7091838083BD82AC82C601DF91CF911F91A2
S1130F800F91FF90EF90DF90CF90BF90AF900895B6
S1130F90F801808181508083E8CF6E817F81FB01DD
S1130FA0808191819F838E83F7018385F8018183FA
S1130FB081E090E0938382838081813011F41186F3
S1130FC01086A701C6010E94A806B60185EE91E02D
S1130FD00E941706892B39F4EE81FF81C280D380E9
S1130FE0D982C882C9CFC880D980C6CFCF93DF93B6
S1130FF0C091E501D091E601BE016E5F7F4F85EEA1
S113100091E00E941706009749F0688179810E9457
S1131010BC0981E090E0DF91CF91089590E080E0F9
S1131020FACFCF93DF93E091E501F091E60180815F
S1131030918126813781EC01AC81BD811296CD91DD
S1131040DC911397249731F4C2E0D0E01396DC933B
S1131050CE9312977183608341155105B9F4A4812D
S1131060B5814D915C9111975583448311961C92DF
S11310701E92B783A6830680F781E02D7383628373
S113108031832083DF91CF910C94BC09578346832D
S1131090F2CFAF92BF92CF92DF92EF92FF920F9373
S11310A01F93CF93DF93DC01AD90BC90E501E88101
S11310B0F9812A813B81DB01CD90DC90E6015B83E1
S11310C04A8381E090E0B0E0A0E0309711F000970F
S11310D0A9F4109779F10D90BC91A02D6D937C9398
S11310E0E601F983E883DF91CF911F910F91FF907F
S11310F0EF90DF90CF90BF90AF9008950081118161
S1131100E801EA80FB802E153F0558F44E155F0573
S113111018F42417350758F0DF01E801E881F98154
S1131120D4CF2417350718F04E155F05A8F790E0C3
S113113080E0CBCFD501D2CFCF93DF93DC011296E1
S1131140ED91FC9113970D90BC91A02D12962D91C9
S11311503C91DF01A41BB50BA217B30730F0420F7B
S1131160531FDF91CF910C94490841505109420F0C
S1131170531F4E1B5F0BF5CF8F929F92AF92BF927E
S1131180CF92DF92EF92FF920F931F93CF93DF934F
S113119000D0CDB7DEB7DC01CD90DC901197F6011D
S11311A02281338112964D915C912417350708F4FE
S11311B071C01382128230E020E0F60100811181B7
S11311C00115110509F457C0D801ED91FC9111974F
S11311D0428153814217530709F04DC023E0E22EA8
S11311E0F12C2D913C91F901F582E482A081B18129
S11311F0109749F06D917C911197FB016281738185
S11312004617570771F37C01F90111821082F60128
S1131210B183A08382E0C82ED12CD801ED91FC913A
S11312201197A080B1801A8219821C968D919C918D
S11312301D978130910509F442C088F182309105EF
S113124009F452C0039709F455C0D801ED91FC91FB
S113125084819581039761F4468157814115510535
S113126009F44DC0D582C482B801C7010E949C080C
S11312708501AB2891F60F900F90DF91CF911F91CC
S11312800F91FF90EF90DF90CF90BF90AF909F9021
S11312908F9008952F5F3F4F338322838ECFF801C1
S11312A086809780C4010E94D7069A838983892BFC
S11312B061F6B40183ED91E00E943307C6CF1A961C
S11312C06D917C911B97AE014F5F5F4F16968D9188
S11312D09C910E94FE06009709F4B7CFBC0183EDF0
S11312E091E00E945A07B1CFF801808591850E9450
S11312F0BC08ABCF1496ED91FC910995A6CF15824D
S11313001482B6CFCF93DF93DB01ED91FC91A481DE
S1131310B581A230B10568F537832683119711F59D
S1131320EC012A813B81A881B98112968D919C910F
S1131330B901641B750B6817790768F0480F591FCA
S11313405383428384E090E09583848390E080E03B
S1131350DF91CF91089541505109480F591F421B05
S1131360530BEECF22E030E0358324830E949C08A7
S1131370EDCF87E090E0ECCFFB01DC0112964D91BC
S11313805C9162817381A481B58112968D919C9147
S1131390029719F4CF010C946000CF010C94A800BB
S11313A0CB01DB0112966D917C9113971496ED910C
S11313B0FC91228133812230310511F40C94800098
S11313C00C94A000DC0112966D917C911397ED9121
S11313D0FC9140815181DB01ED91FC91228933899B
S11313E02115310519F04217530729F4DB01ED9358
S11313F0FC930C948000F901F1CFCF93DF9300D0DC
S1131400CDB7DEB7BE016F5F7F4F83ED91E00E94E1
S11314108A07BC0189819A810E94D0090F900F909C
S1131420DF91CF910895F894FFCFE6E208958F936A
S11314309F9380E00E941F0A9F918F9118951F929D
S11314400F920FB60F9211242F933F934F935F93F4
S11314506F937F93AF93BF93EF93FF930E941B0708
S1131460FF91EF91BF91AF917F916F915F914F91F8
S11314703F912F910F900FBE0F901F900895A1E2FE
S11314801A2EAA1BBB1BFD010DC0AA1FBB1FEE1FFA
S1131490FF1FA217B307E407F50720F0A21BB30B45
S11314A0E40BF50B661F771F881F991F1A9469F7C1
S11314B060957095809590959B01AC01BD01CF011D
S11314C00895EE0FFF1F0590F491E02D0994AEE00E
S11314D0B0E0EDE6FAE00C941F0D8C01FA0186E011
S11314E08C831A83098377FF02C060E070E861503F
S11314F071097E836D83A901BF01CE0101960E940B
S1131500930A4D815E8157FD0AC02F8138854217A9
S113151053070CF49A01020F131FF80110822E9640
S1131520E4E00C943B0DABE0B0E0E9E9FAE00C94A4
S1131530110D7C013B018A01FC0117821682838113
S113154081FFC8C1CE0101965C01F7019381F301CB
S113155093FD859193FF81913F01882309F453C141
S1131560853239F493FD859193FF81913F01853252
S113157029F4B70190E00E94830CE7CF912C212C31
S1131580312CFFE1F31538F08B3211F190F48032F5
S113159009F1833229F137FC3CC020ED280F2A30B1
S11315A050F536FE20C08AE0989E200D1124922E1C
S11315B006C08D3291F0803371F7689430F8F301EE
S11315C093FD859193FF81913F018111DACF21C071
S11315D0689431F8689432F8F2CF689433F8EFCF16
S11315E0689434F8ECCFEAE02E9E200D1124222ECC
S11315F0689435F8E4CF8E3229F436FC04C168943B
S113160036F8DDCF8C3619F4689437F8D8CF88369D
S1131610B1F2982F9F7D95549330E0F08336A1F179
S11316208337C1F1833509F063C02801F2E04F0E1E
S1131630511CF801C080D180692D70E036FC02C0D5
S11316406FEF7FEFC6010E946D0C4C01689437F870
S113165082010AC00C5F1F4FFFE3F983882483943F
S1131660912C6501E89437F833FE2DC0522C811477
S1131670910471F5552009F468CFB70180E290E038
S11316800E94830C5A94F6CFF801808189830E5FFF
S11316901F4FE4CF2801F2E04F0E511CF801C08027
S11316A0D180692D70E036FC02C06FEF7FEFC60178
S11316B00E94780C4C018201D5CFB70180E290E002
S11316C00E94830C2A942814190409F0B0F7CECF91
S11316D0F60137FC859137FE81916F01B70190E0E7
S11316E00E94830C51105A94F1E08F1A9108BFCFD5
S11316F0843619F0893609F077C0F80137FE6BC0DB
S113170060817181828193810C5F1F4FF32DFF767D
S11317103F2E97FF09C090958095709561957F4FF6
S11317208F4F9F4F689437F82AE030E0A5010E945C
S1131730B30CC82ECA188C2C432C36FE0CC0E8946B
S113174040F8C91440F434FE05C032FC03C0F32D44
S1131750FE7E4F2E892C44FE95C0FE01EC0DF11D3A
S11317608081803309F087C0242D297E422E842D68
S11317708870582E43FC95C040FE8FC09C2C821468
S113178018F42C0C922C981844FE91C0B70180E3F5
S113179090E00E94830C42FE09C088E790E041FE7D
S11317A002C088E590E0B7010E94830CC91408F4D4
S11317B08AC0CA94D12C9FEFC91AD90ACA0CDB1C5F
S11317C0F60182916F01B70190E00E94830CAC1482
S11317D0BD04B1F74FCF60817181072E000C880BD7
S11317E0990B0E5F1F4F92CFD32CE894D4F82AE0C4
S11317F030E0853739F1232D297FD22E8F3601F140
S113180048F48835A9F0F701868197812B96E2E1A7
S11318100C942D0D803749F08837A9F7D4FE02C007
S11318206894D2F820E130E00DC06894D4F8F6CF83
S113183034FE03C0822F8660D82E20E132E002C03D
S113184028E030E0F801D7FE0FC060817181828109
S113185093810C5F1F4FA5010E94B30CC82ECA18B8
S11318603D2CE89437F867CF6081718190E080E087
S11318700E5F1F4FF0CF42FC02C0839478CF839455
S1131880839475CF842D867809F471CFF6CFB70190
S113189080E290E00E94830C83948214C0F3512C64
S11318A073CF522C5818821408F46ECFF8CF842DBD
S11318B0867809F47BCF8BE241FE80E247FC8DE21F
S11318C0B70190E071CFB70180E390E00E94830CF0
S11318D09A946CCF8FEF9FEF99CFFC0105906150E4
S11318E070400110D8F7809590958E0F9F1F089532
S11318F0FC016150704001900110D8F780959095DB
S11319008E0F9F1F08950F931F93CF93DF93182F6C
S1131910092FEB018B8181FD09C01FEF0FEF812F90
S1131920902FDF91CF911F910F91089582FF14C0E2
S11319302E813F818C819D81281739073CF4E881F1
S1131940F981CF0101969983888310838E819F81C9
S113195001969F838E83E3CFE885F985812F0995CE
S1131960892BA1F3DACFFA01AA27283051F12031CB
S113197081F1E8946F936E7F6E5F7F4F8F4F9F4F1F
S1131980AF4FB1E03ED0B4E03CD0670F781F891F61
S11319909A1FA11D680F791F8A1F911DA11D6A0F2F
S11319A0711D811D911DA11D20D009F468943F91E2
S11319B02AE0269F11243019305D3193DEF6CF01E1
S11319C00895462F4770405D4193B3E00FD0C9F7A7
S11319D0F6CF462F4F70405D4A3318F0495D31FD14
S11319E04052419302D0A9F7EACFB4E0A695979567
S11319F0879577956795BA95C9F70097610571053D
S1131A0008959B01AC010A2E069457954795379586
S1131A102795BA95C9F7620F731F841F951FA01DE0
S1131A2008952F923F924F925F926F927F928F927E
S1131A309F92AF92BF92CF92DF92EF92FF920F9359
S1131A401F93CF93DF93CDB7DEB7CA1BDB0B0FB663
S1131A50F894DEBF0FBECDBF09942A883988488820
S1131A605F846E847D848C849B84AA84B984C884B6
S1131A70DF80EE80FD800C811B81AA81B981CE0FAD
S1131A80D11D0FB6F894DEBF0FBECDBFED01089592
S1071A90F894FFCFF4
S1131A9450020000120100000000FF0000000000DA
S1131AA40000160100001A0100000000000000807C
S1131AB4000000000000000000000001000000001D
S1131AC4000000000000000200000000000000000C
S1131AD40000010004000000000000000000546144
S1131AE4736B3120426567696E732E2E2E0A004192
S1131AF464646564203130303030303020746F20B9
S1131B047368617265640A00636F756E746572202C
S1131B143D20256C750A005461736B312046696E4F
S1131B2469736865732E2E2E0A004164646564200B
S1131B343130303020746F207368617265640A0038
S1131B440A2E2E2E2E2E2E2E2E2E2E2E2E2E2E2ED1
S1131B540A002E2E2E4F53205374617274732E2E4A
S1131B642E0A0035031E020400190201000B0201AF
S1131B7400FB0101000001500213020100F1010104
S1131B8400F5010100FD0101000100FD017C020DCD
S1131B9402000042020000000000000D0284027FE3
S1131BA40001001702010034021B0288020226020B
S1131BB43402420250025E028D021E01000200D26F
S1131BC4008080015E028D022A01010000D500011B
S1131BD401015E028D0236010200002101020201AC
S1131BE45E028D02420103030000060000010000AE
S1131BF4000000000000C302F7037202A3024402BF
S1071C045E02500226
S9030000FC
