:100000000C945E000C9486000C9486000C94860080
:100010000C9486000C9486000C9486000C94860048
:100020000C9486000C9486000C9486000C94891421
:100030000C9486000C9486000C9486000C94860028
:100040000C94710B0C9486000C942E0E0C94600E84
:100050000C9486000C9486000C9486000C94860008
:100060000C9486000C948600000000080002010039
:100070000003040700000000000000000102040863
:100080001020408001020408102001020408102002
:10009000040404040404040402020202020203032E
:1000A0000303030300000000250028002B000000CC
:1000B0000000240027002A001D02860E11241FBE06
:1000C000CFEFD8E0DEBFCDBF12E0A0E0B1E0E2E8C4
:1000D000FFE202C005900D92A43BB107D9F723E0DF
:1000E000A4EBB2E001C01D92AD38B207E1F710E019
:1000F000CEE5D0E004C02197FE010E94D314CC3598
:10010000D107C9F70E9409020C94BF170C948514FB
:100110002F923F924F925F926F927F928F929F9217
:10012000AF92BF92CF92DF92EF92FF920F931F9305
:10013000CF93DF93E42FF52F419050804F925F9241
:10014000E42FF52F4DB65EB6419250820C94A80074
:10015000E62FF72F419050804DBE5EBE5F904F90CE
:10016000E62FF72F41925082DF91CF911F910F918F
:10017000FF90EF90DF90CF90BF90AF909F908F90C7
:100180007F906F905F904F903F902F900C9426102F
:10019000E62FF72F419150814DBF5EBF0C942F1079
:1001A0002F923F924F925F926F927F928F929F9287
:1001B000AF92BF92CF92DF92EF92FF920F931F9375
:1001C000CF93DF93E42FF52F419050804F925F92B1
:1001D000E42FF52F4DB65EB6419250820C94C800C4
:1001E000E82FF92F419150814DBF5EBFE62FF72FC9
:1001F00009940000CF93CFB7F8948091B702811192
:1002000027C0EAE9F0E08491E6E8F0E09491E82F75
:10021000F0E0EE0FFF1FE255FF4FA591B491EC9176
:10022000E92321F461E08AE00E94D00C61E08AE0D9
:100230000E94940C8CB580618CBD8CB580648CBDA3
:1002400061E08DE00E94940C61E08BE00E94940CD0
:100250008091B7028F5F8093B702CFBFCF9108958F
:1002600080E00C94F70F0F931F93CF93DF930E94BE
:100270008A018330E9F543E853E06BE873E08FE7E8
:1002800093E00E948E018EE391E09F938F930E94F2
:10029000B001809182038F93809181038F9380912D
:1002A00080038F9380917F038F9382E791E09F93E8
:1002B0008F930E94B0018DB79EB708960FB6F89441
:1002C0009EBF0FBE8DBFC3E8D3E00AE811E02091C6
:1002D0008B03CE01835893402817190609F074F454
:1002E00088E891E09F938F930E94B0010F900F9048
:1002F000DF91CF911F910F910C94DD0F89911F9287
:100300008F931F930F930E94B0010F900F900F9047
:100310000F90DDCF89EB92E00C948A04CF92DF92AC
:10032000EF92FF920F931F93CF93DF93EC017B012A
:100330006A0189EB92E00E94710400EC12E02BEB61
:1003400032E0AE01682F89EB92E00E941B09DF9139
:10035000CF911F910F91FF90EF90DF90CF90089574
:10036000CF93DF93CDB7DEB7C058D1090FB6F8945D
:10037000DEBF0FBECDBF9E012B573F4FF90141910C
:1003800051919F0160E870E0CE0101960E94DE1459
:10039000BE016F5F7F4F82EE92E00E94EF0EC05869
:1003A000DF4F0FB6F894DEBF0FBECDBFDF91CF9108
:1003B0000895CF93DF9326E040E855E260E070E0D7
:1003C00082EE92E00E94CC0DC1E9D1E021E040E153
:1003D00050E060E070E089EB92E00E9443078823E0
:1003E00039F0DF93CF930E94B0010F900F90EECFC2
:1003F00060E472E48FE090E00E94F80E8CE991E0F6
:100400009F938F930E94B0010F900F90DF91CF9137
:10041000089581E088B992E09093680080936C0021
:100420008FEF8CBB78940E94300C0E94D90180E041
:100430000E94560F90E080E0089569E089EB92E019
:100440000E94660BE9EBF2E085E392E09183808302
:1004500014860895633008F062E0FC016487089513
:1004600082E008958F929F92AF92BF92CF92DF92D7
:10047000EF92FF920F931F93CF93DF93EC014B0109
:100480007A016901E881F981A28CB38C00A4F1A5FD
:10049000E02D09958E01095F1F4F9E012E5F3F4F92
:1004A000A401682FCE01F5010995DF91CF911F912D
:1004B0000F91FF90EF90DF90CF90BF90AF909F9003
:1004C0008F900895AF92BF92CF92DF92EF92FF92FA
:1004D0000F931F93CF93DF93EC017B016A01E881B7
:1004E000F981A28CB38C00A4F1A5E02D09958E01B1
:1004F000095F1F4F9E012E5F3F4FAE014D5F5F4F63
:10050000682FCE01F5010995DF91CF911F910F91D1
:10051000FF90EF90DF90CF90BF90AF900895FB01D8
:100520009081892F817090FF03C09E7F90830895F2
:10053000892F82709C7FFACFDB014330C8F0FC0129
:10054000848543E050E0481B510920E0822F90E071
:1005500084179507ECF43C912330B0F4825E9D4FF4
:10056000FC019081832F892389F0909593230AC001
:100570002C91E42FF0E0E25EFD4F9081822F8923E1
:10058000909592239C93089590E0ECCF2F5FDECF5F
:1005900080E008952091B602222381F03FB7F894BD
:1005A0002091B602213069F42DB32093B4024DB3EB
:1005B0002091B502209524232DBB3FBF8CBD9DBD4E
:1005C00008953093B402FACF8EBD00000DB407FE3B
:1005D000FDCF8EB508958091B602882361F09FB754
:1005E000F8942091B6028091B402213019F48DBBA9
:1005F0009FBF08958FBF089584508D3030F4E82F49
:10060000F0E0EF5DFD4F8081089580E00895813432
:1006100031F0813531F0813331F481E8089582E899
:10062000089584E8089580E00895813431F081359B
:1006300031F0813331F480E4089582E4089584E454
:10064000089580E00895CF93DF93EC0180E590E07A
:100650000E94CA0260E088850E94D00C80EC0E9453
:10066000E40261E088850E94D00C0E94EB026AE0FF
:1006700070E080E090E0DF91CF910C94EC0B1F9341
:10068000CF93DF93EC01162F80E590E00E94CA0221
:1006900060E088850E94D00C83E00E94E402812FF4
:1006A0000E94E40280E00E94E402182F61E0888545
:1006B0000E94D00C0E94EB02812FDF91CF911F91FD
:1006C00008956EE00E943F03807E0895CF93DF93EC
:1006D000EB016DE20E943F03209709F08883887F39
:1006E00009F085E0DF91CF9108956230D1F030F4C8
:1006F000662351F0613071F080E008956330C1F0FD
:100700006430D1F76DE007C06CE00E943F03829532
:10071000817008956CE00E943F0385FB882780F973
:1007200008956DE00E943F0383FB882780F90895B8
:100730006DE0EBCF0F931F93CF93DF93EC01062F68
:10074000142F80E590E00E94CA0260E088850E9434
:10075000D00C82E00E94E402802F0E94E402812FEC
:100760000E94E40261E088850E94D00CDF91CF9165
:100770001F910F910C94EB021F93CF93DF93EC0129
:10078000162F6BE20E943F03482F112341F04C616A
:100790006BE2CE01DF91CF911F910C949A03437EBF
:1007A000F7CFDF92EF92FF920F931F93CF93DF93D8
:1007B0007C01C62FD42E152F022F80E590E00E94D9
:1007C000CA0260E0F70180850E94D00C82E00E949E
:1007D000E4028C2F0E94E402CD2DD12F0C0F1D2F8F
:1007E000111DC017D10721F089910E94E402F9CFB1
:1007F00061E0F70180850E94D00CDF91CF911F91BD
:100800000F91FF90EF90DF900C94EB02FF920F930B
:100810001F93CF93DF93EC01F62E042F122F80E568
:1008200090E00E94CA0260E088850E94D00C85E0BA
:100830000E94E4028F2D0E94E402802F0E94E402B5
:10084000812F0E94E40261E088850E94D00CDF9134
:10085000CF911F910F91FF900C94EB0220E061115A
:1008600020E440E46BE20C940604462F4C7121F026
:1008700020E06CE20C9406040895662321F06130B8
:1008800061F080E0089520E1413009F020E040E18E
:100890006CE00E94060481E0089520E2413009F0F6
:1008A00020E040E2F5CF1F93CF93DF93EC0180E58A
:1008B00090E00E94CA0260E088850E94D00C80EA25
:1008C0000E94E40280E00E94E402182F61E0888523
:1008D0000E94D00C0E94EB02812FDF91CF911F91DB
:1008E00008950E945304982F9B7A292F30E0959504
:1008F0009595959590718370982BA901559547957D
:100900004470942B35952795359527952870892F18
:10091000822B08950E945304837011F484E008959B
:1009200083E00895CF92DF92EF92FF921F93CF93CF
:10093000DF93EC01162F0E94BB0B6B017C01212F72
:1009400040EE6FE0CE010E9406046EE0CE010E94F0
:100950003F03807E1817A1F00E94BB0B6C197D0924
:100960008E099F09693C71058105910540F381E07D
:10097000DF91CF911F91FF90EF90DF90CF9008957E
:1009800080E0F6CF0F931F93CF93DF93EC01162FE8
:10099000E881F9810488F589E02D0995803221F5F7
:1009A000103211F16BE2CE010E943F03082F007458
:1009B00086FD06C020E440E46BE2CE010E940604FE
:1009C00020E440E46CE2CE010E94060460E6CE0121
:1009D0000E949204811116C0011106C020E040E47B
:1009E0006BE2CE010E94060420E040E46CE2CE01FE
:1009F0000E940604612FCE01DF91CF911F910F91CC
:100A00000C94920481E0DF91CF911F910F91089592
:100A1000CF93DF93EC01E881F9810488F589E02D1B
:100A20000995803231F060E2CE01DF91CF910C94D4
:100A3000C20480E0DF91CF910895CF93DF93EC0162
:100A4000E881F9810488F589E02D09956B8568179F
:100A500029F0CE01DF91CF910C94C20480E0DF91A8
:100A6000CF910895603211F0FC0163870C94C204A9
:100A70001F93CF93DF93EC01142F6230D9F130F440
:100A80006623A9F0613049F110E01FC0633009F41A
:100A900053C06430C9F760E80E94C20481112FC0BE
:100AA000113009F457C01330A9F520E054C041308B
:100AB00089F020F0423041F724E00DC020E044E00E
:100AC0006CE0CE010E94060411E0812FDF91CF91EE
:100AD0001F91089525E045E0F3CF413041F020F02B
:100AE000423091F628E004C020E048E0E9CF2AE057
:100AF0004AE0E6CF60E80E94C204882339F06AE049
:100B000070E080E090E00E94EC0BBECF113021F04D
:100B1000133081F010E007C021E041E06DE0CE012C
:100B20000E94060411E06B85CE010E94C204882356
:100B300061F2E5CF20E0F1CF60E80E94C2048111AC
:100B4000DECF113021F0133029F720E001C022E080
:100B500042E0E4CF24E044E0E1CF0F931F93CF9332
:100B6000DF93423009F471C0433009F4B8C041301A
:100B700009F008C16150633108F004C1E62FF0E0CC
:100B8000EC53FA4F0C94D314AE06B906D705DB0527
:100B9000DE05E105E505E905EC05F005F305F605DB
:100BA000F905FC05000617061B061E062206C7E807
:100BB000DFEF4FE028C0C7E0DAEBFBCFC5E8D1EFAD
:100BC000F8CFC7E0DEEB49E01EC0C7E8DFEF47E043
:100BD0001AC0C7E8DAEFFBCFC7E8DFEF43E013C086
:100BE000C7E0DEEBFBCFC7E0DDEAF8CFC7E8DAEF1E
:100BF000F5CFC6E8D0EFF2CFC7E8DAEF41E003C0A7
:100C0000C5E8D1EF41E48C016AE20E949A034D2FBE
:100C100069E2C8010E949A034C2F68E2C8010E9451
:100C20009A0380E0DF91CF911F910F910895C6E85C
:100C3000D0EF40E0E8CFC4E0D0EAFBCFC2E0D2E999
:100C400040E4E1CFC2E8D0EDF4CF6350613108F069
:100C500099C0E62FF0E0E15DF94F0C94D314B20691
:100C6000BC064006440648064B064F065306560689
:100C70005A065D066006630666066906C2066C06CD
:100C8000C3E0DCEA4BE0BFCFC2E0D4EA4CE0BBCF2C
:100C9000C3E0D4EA98CFC4E0D6EB45E0B4CFC3E0DC
:100CA000D4EA44E0B0CFC3E0D5EB98CFC4E0DEEBAC
:100CB00042E0A9CFC4E0D6EBFBCFC6E0DFEB9ECF8E
:100CC000C3E0D4EA9BCFC6E0DFEBB3CFC2E0DBE901
:100CD000B0CFC1E0D2E9ADCFC1E0D8E8AACF615032
:100CE000633108F04FC0E62FF0E0E758F94F0C945D
:100CF000D314B506BF068C06C2068F06C20692063E
:100D000095069806C206C2069A069D06A006A30688
:100D1000A606C206A906AC06C7E0DFEB58CFC4E0C2
:100D2000D4EA55CFC7E0DFEB59CFC6E0D4EB56CFBE
:100D3000C7E0C4CFC6E0D4EB61CFC5E0D1EB5ECF56
:100D4000C6E0D4EB76CFC5E0D1EB73CFC2E0D0E9FB
:100D500070CFC1E0D0E86DCFC0E0FCCFC7E8DFEFD7
:100D60004FE351CFC5E0DFEB91CFC7E0DFEB4FE1C1
:100D70004ACFC7E8DFEFFBCFC4E0D6EB83CFC7E0B5
:100D8000DFEB17CF81E04ECF0F931F93CF938C01F2
:100D9000C0E340E06C2FC8010E949A0360E16C0F31
:100DA00040E0C8010E949A0360E26C0F40E0C80175
:100DB0000E949A03CF5FCE3361F740E060E6C8013E
:100DC0000E949A0340E060E7C801CF911F910F9104
:100DD0000C949A03FF920F931F93CF93DF93EC0130
:100DE000062FF42E0E94230360E8CE010E94C20465
:100DF000182F6AE070E080E090E0112349F00E9433
:100E0000EC0B812FDF91CF911F910F91FF900895EF
:100E10000E94EC0B4F2D602FCE010E94AD05882360
:100E200029F06AE070E080E090E0E9CF6AE070E0ED
:100E300080E090E00E94EC0BCE010E94C40643E0EB
:100E40006BE2CE010E949A0324E044E660E6CE0104
:100E50000E94060420E040E660E7CE010E940604FE
:100E6000E881F9810288F389E02D60E0CE010995DF
:100E7000C82F8823B1F26AE070E080E090E00E9421
:100E8000EC0B1C2FBECF0F931F93CF93DF93EC017E
:100E9000142F022F0E94FA00402F612FCE010E94D2
:100EA000EA0691E0811101C090E0892FDF91CF9196
:100EB0001F910F910895F9018130B1F4438352835A
:100EC000AB0166277727842F880F880F880F807ED5
:100ED000942F93709860892B818365E05695479590
:100EE0006A95E1F740830895CA0123E096958795B6
:100EF0002A95E1F780834295440F407E4183138217
:100F000012820895DF92EF92FF920F931F93CF9377
:100F1000DF9300D000D0CDB7DEB77C01D62E842F72
:100F2000B901A8019E012F5F3F4F0E945B0724E09B
:100F3000AE014F5F5F4F6D2DC7010E94D1030F902F
:100F40000F900F900F90DF91CF911F910F91FF9015
:100F5000EF90DF9008958F929F92AF92BF92EF92A1
:100F6000FF920F931F93CF93DF93EC01E62EF42EA5
:100F7000480159016AE070E080E090E00E94EC0BCB
:100F800060E8CE010E94C204182F882391F06AE025
:100F900070E080E090E00E94EC0B812FDF91CF9118
:100FA0001F910F91FF90EF90BF90AF909F908F9007
:100FB0000895E1100DC0950184014F2D60E2CE012E
:100FC0000E9482076B85CE010E94C204182FDFCFDA
:100FD00081E0E812F7CF950184014F2D64E2EFCF55
:100FE0008F929F92AF92BF92EF92FF920F931F93B7
:100FF000CF93DF93EC01F62EE42E480159016AE00D
:1010000070E080E090E00E94EC0B60E8CE010E946E
:10101000C204182F882391F06AE070E080E090E02D
:101020000E94EC0B812FDF91CF911F910F91FF90C8
:10103000EF90BF90AF909F908F90089582E0F81648
:1010400039F18F1558F0FF20B1F081E0F816D9F092
:101050006B85CE010E94C204182FDECF84E0F81603
:1010600009F1F816D0F085E0F812F2CF950184016D
:101070004E2D68E104C0950184014E2D60E0CE0143
:101080000E948207E5CF950184014E2D64E0F7CFE1
:10109000950184014E2D68E0F2CF950184014E2D1B
:1010A00060E1EDCF950184014E2D64E1E8CF2F92F0
:1010B0003F924F925F926F927F928F929F92AF92E8
:1010C000BF92CF92DF92EF92FF920F931F93CF9335
:1010D000DF9300D000D0CDB7DEB73C01962E5A0189
:1010E0001901280160E0FC0180850E94D00C892D47
:1010F0000E94E4028E010F5F1F4F4E01F5E08F0E3C
:10110000911C80E00E94E402F80181938F01E815B0
:10111000F905B9F72A818981F8E08F9FC001112470
:10112000422F50E065E0559547956A95E1F7840FA9
:10113000951F092E000CAA0BBB0BF5018083918330
:10114000A283B383F101108223FF3AC0F5018081AD
:101150009181A281B38132E0880F991FAA1FBB1F22
:101160003A95D1F72370820F911DA11DB11D808387
:101170009183A283B38380819181A281B381BA2FAD
:10118000A92F982F88272B81820F911DA11DB11D9A
:1011900080839183A283B38380819181A281B38173
:1011A000BA2FA92F982F88272C81820F911DA11D5E
:1011B000B11D80839183A283B38381E0F101808399
:1011C00080E00E94E402982F9F70F701908386FBD5
:1011D000882780F9F201808310E000E0F701808128
:1011E000081770F40830110559F05601A00EB11E11
:1011F00080E00E94E402F50180830F5F1F4FEECF75
:1012000061E0F30180850F900F900F900F90DF91B8
:10121000CF911F910F91FF90EF90DF90CF90BF90F3
:10122000AF909F908F907F906F905F904F903F9086
:101230002F900C94D00C6F927F928F929F92AF92CE
:10124000BF92CF92DF92EF92FF920F931F93CF93B3
:10125000DF93EC015A014901380160FF23C060E9C6
:10126000CE010E945708F30180818F83F4018081B1
:101270008A83F50180819181A281B3818B839C83D4
:10128000AD83BE8380E0DF91CF911F910F91FF90DE
:10129000EF90DF90CF90BF90AF909F908F907F9016
:1012A0006F90089561FF02C064E9DACFF701108200
:1012B00084E0E9CF1F93CF93DF93EC01162F80E5F5
:1012C00090E00E94CA0260E088850E94D00C812FC5
:1012D0000E9407030E94E40261E088850E94D00C0E
:1012E000DF91CF911F910C94EB024F925F926F921E
:1012F0007F928F929F92AF92BF92CF92DF92EF92A6
:10130000FF920F931F93CF93DF9300D000D0CDB700
:10131000DEB74C01F62E29013A01862F0E941503F3
:10132000182F80E0E11080E4EC2CE82A9E012F5F6A
:101330003F4FB301A201802F0E945B0780E590E040
:101340000E94CA0260E0F40180850E94D00C812FC7
:101350000E94E4028E010F5F1F4F3E01F5E06F0E09
:10136000711CF80181918F010E94E4020615170596
:10137000C1F78E2D0E94E402D12C10E000E0C016CF
:10138000D10661F00830110549F0F501E00FF11FB9
:1013900080810E94E4020F5F1F4FF1CF61E0F401F2
:1013A00080850E94D00C0E94EB026F2DC4010E9428
:1013B0005A090F900F900F900F90DF91CF911F91CE
:1013C0000F91FF90EF90DF90CF90BF90AF909F90E4
:1013D0008F907F906F905F904F9008954F925F92A3
:1013E0006F927F92AF92BF92CF92EF92FF920F9344
:1013F0001F93CF93DF93EC01F62E29013A01862F3C
:101400000E94FC02182F82E0112369F020E04F2D8A
:101410006CE2CE010E940604A3019201612FCE016D
:101420000E94750980E0DF91CF911F910F91FF908D
:10143000EF90CF90BF90AF907F906F905F904F9064
:101440000895EF92FF920F931F93CF93FB011082A9
:10145000433038F082E0CF911F910F91FF90EF90D1
:101460000895C42F7B018C010E9453044C2F50E03F
:10147000FA01E55EFD4F9081892361F7FA01E25D93
:10148000FD4F80818F5FF7018083425E5D4F20E0DA
:10149000FA0140816CE2C8010E94060480E0DBCFC3
:1014A0000F931F93CF93DF93EC018B010E945304A2
:1014B0008475F8011082843591F19C8563E070E0B9
:1014C000691B710990E0292F30E0261737073CF59A
:1014D0004FEF933020F4F901E55EFD4F4081482342
:1014E000E1F480E5933020F4F901E25DFD4F808165
:1014F0008F5FF801808340E0933020F4225E3D4FFF
:10150000F901408120E06CE2CE010E94060480E0F7
:10151000DF91CF911F910F9108959F5FD4CF82E00B
:10152000F7CF4F925F926F927F928F929F92AF927E
:10153000BF92CF92DF92EF920F931F93CF93DF93DF
:101540001F92CDB7DEB74C012A013B01122F4A2D65
:10155000BE016F5F7F4F433010F50E94210A811159
:101560001CC05601CE2CE02E012FA30192016981EF
:10157000C4010E94750980E00F90DF91CF911F9107
:101580000F91EF90DF90CF90BF90AF909F908F9092
:101590007F906F905F904F90089582E0EDCF0E9412
:1015A000500ADDCF2F923F924F925F926F927F92BF
:1015B0008F929F92AF92BF92CF92DF92EF92FF9263
:1015C0000F931F93CF93DF931F92CDB7DEB74C01DC
:1015D0002A013B01222E302EFA2CFC014382548238
:1015E000658276822283078310E000E0BE016F5F90
:1015F0007F4FC4010E94500A0F5F1F4F823051F489
:101600000233110511F486E017C08AE090E00E94D1
:10161000250CECCF02331105B1F35601CE2CE32C8F
:10162000022DA30192016981C4010E94750910E095
:1016300000E0F11019C080E00F90DF91CF911F9171
:101640000F91FF90EF90DF90CF90BF90AF909F9061
:101650008F907F906F905F904F903F902F90089564
:101660008AE090E00E94250C0F5F1F4F6981615056
:10167000C4010E943F0383FF05C00233110581F7B7
:1016800087E0DACF02331105B1F6FACFAF92CF92ED
:10169000DF92EF920F930E94D20A0F91EF90DF90AA
:1016A000CF90AF900895CF93DF93EC01662359F06C
:1016B000862F688761E00E94940C61E08885DF9145
:1016C000CF910C94D00CDF91CF9108952DE632E0AC
:1016D000FC013183208328EB32E0328721870C9490
:1016E000530B1F920F920FB60F9211242F933F931B
:1016F0008F939F93AF93BF938091DA029091DB0217
:10170000A091DC02B091DD023091D90223E0230FD9
:101710002D3758F50196A11DB11D2093D902809354
:10172000DA029093DB02A093DC02B093DD02809199
:10173000DE029091DF02A091E002B091E1020196F9
:10174000A11DB11D8093DE029093DF02A093E00201
:10175000B093E102BF91AF919F918F913F912F91F3
:101760000F900FBE0F901F90189526E8230F02963A
:10177000A11DB11DD2CF2FB7F8946091DA027091FC
:10178000DB028091DC029091DD022FBF08953FB70C
:10179000F8948091DE029091DF02A091E002B09176
:1017A000E10226B5A89B05C02F3F19F00196A11DA7
:1017B000B11D3FBFBA2FA92F982F8827BC01CD019B
:1017C000620F711D811D911D42E0660F771F881FFA
:1017D000991F4A95D1F708958F929F92AF92BF9229
:1017E000CF92DF92EF92FF926B017C010E94C70BB8
:1017F0004B015C01C114D104E104F104E9F00E9441
:10180000F70E0E94C70B681979098A099B09683E7F
:1018100073408105910570F321E0C21AD108E108F7
:10182000F10888EE880E83E0981EA11CB11CC1143B
:10183000D104E104F10429F7FF90EF90DF90CF90FD
:10184000BF90AF909F908F9008958230910538F0AF
:10185000880F991F880F991F05970197F1F7089531
:10186000789484B5826084BD84B5816084BD85B57B
:10187000826085BD85B5816085BDEEE6F0E0808142
:1018800081608083E1E8F0E0108280818260808363
:10189000808181608083E0E8F0E0808181608083E6
:1018A000E1EBF0E0808184608083E0EBF0E0808118
:1018B00081608083EAE7F0E08081846080838081BA
:1018C0008260808380818160808380818068808362
:1018D0001092C1000895833081F028F4813099F08E
:1018E0008230A9F008958730A9F08830C9F084309B
:1018F000B1F4809180008F7D03C0809180008F774C
:1019000080938000089584B58F7784BD089584B551
:101910008F7DFBCF8091B0008F778093B0000895CA
:101920008091B0008F7DF9CFCF93DF9390E0FC01E1
:10193000E458FF4F249180579F4FFC0184918823E6
:10194000C9F090E0880F991FFC01E255FF4FA59167
:10195000B491FC01EC55FF4FC591D49161110DC0BC
:101960009FB7F8948C91209582238C9388812823AB
:1019700028839FBFDF91CF910895623051F49FB7C4
:10198000F8943C91822F809583238C93E8812E2BB1
:10199000EFCF8FB7F894EC912E2B2C938FBFEACF1B
:1019A0001F93CF93DF93282F30E0F901E859FF4FC1
:1019B0008491F901E458FF4FD491F901E057FF4FAA
:1019C000C491CC23A9F0162F81110E946B0CEC2F2F
:1019D000F0E0EE0FFF1FEC55FF4FA591B4918FB7CC
:1019E000F894EC91111108C0D095DE23DC938FBFE1
:1019F000DF91CF911F910895DE2BF8CF0E94D9146B
:101A0000FC01918D228D892F90E0805C9F4F821B7D
:101A100091098F7399270895FC01918D828D9817F4
:101A200031F0828DE80FF11D858D90E008958FEFE4
:101A30009FEF0895FC01918D828D981761F0A28D22
:101A4000AE0FBF2FB11D5D968C91928D9F5F9F73DE
:101A5000928F90E008958FEF9FEF0895FC01538DD2
:101A6000448D252F30E0842F90E0821B930B541778
:101A700010F0CF96089501970895FC01A48DA80F4A
:101A8000B92FB11DA35ABF4F2C91848D90E00196C0
:101A90008F739927848FA689B7892C93A089B189E0
:101AA0008C91837080648C93938D848D981306C081
:101AB0000288F389E02D80818F7D80830895CF9304
:101AC000DF93EC01888D8823B9F0AA89BB89E88966
:101AD000F9898C9185FD03C0808186FD0DC00FB60C
:101AE00007FCF7CF8C9185FFF2CF808185FFEDCF8A
:101AF000CE010E943D0DE9CFDF91CF910895EF9285
:101B0000FF920F931F93CF93DF93EC0181E0888FB7
:101B10009B8D8C8D98131AC0E889F989808185FF87
:101B200015C09FB7F894EE89FF896083E889F98929
:101B300080818370806480839FBF81E090E0DF912B
:101B4000CF911F910F91FF90EF900895F62E0B8D7E
:101B500010E00F5F1F4F0F731127E02E8C8D8E1139
:101B60000CC00FB607FCFACFE889F989808185FFA0
:101B7000F5CFCE010E943D0DF1CFEB8DEC0FFD2F87
:101B8000F11DE35AFF4FF0829FB7F8940B8FEA895B
:101B9000FB8980818062CFCFCF92DF92EF92FF925C
:101BA0001F93CF93DF93EC016A017B01122FE88929
:101BB000F98982E08083C11481EED806E104F10442
:101BC000A1F060E079E08DE390E0A70196010E942A
:101BD000B11421503109410951095695479537955E
:101BE0002795211580E1380798F0E889F989108256
:101BF00060E874E88EE190E0A70196010E94B114BC
:101C00002150310941095109569547953795279536
:101C1000EC85FD853083EE85FF852083188EEC8969
:101C2000FD891083EA89FB89808180618083EA894C
:101C3000FB89808188608083EA89FB898081806854
:101C40008083EA89FB8980818F7D8083DF91CF91BA
:101C50001F91FF90EF90DF90CF9008951F920F9209
:101C60000FB60F9211242F938F939F93EF93FF93AF
:101C7000E091F202F091F3028081E091F802F0919C
:101C8000F90282FD1BC090818091FB028F5F8F73F0
:101C90002091FC02821741F0E091FB02F0E0EE514E
:101CA000FD4F958F8093FB02FF91EF919F918F9154
:101CB0002F910F900FBE0F901F9018958081F4CF39
:101CC0001F920F920FB60F9211242F933F934F93B1
:101CD0005F936F937F938F939F93AF93BF93EF9394
:101CE000FF9382EE92E00E943D0DFF91EF91BF9134
:101CF000AF919F918F917F916F915F914F913F91A4
:101D00002F910F900FBE0F901F901895E2EEF2E00A
:101D10001382128288EE93E0A0E0B0E08483958382
:101D2000A683B78385EA92E09183808385EC90E077
:101D30009587848784EC90E09787868780EC90E095
:101D4000918B808B81EC90E0938B828B82EC90E086
:101D5000958B848B86EC90E0978B868B118E128E00
:101D6000138E148E0895AF92BF92CF92DF92EF92AE
:101D7000FF920F931F93CF93DF936C017B018B0135
:101D8000040F151FEB015E01AE18BF08C017D10785
:101D900059F06991D601ED91FC910190F081E02D0F
:101DA000C6010995892B79F7C501DF91CF911F9164
:101DB0000F91FF90EF90DF90CF90BF90AF9008957C
:101DC000FB0101900020E9F73197AF01461B570B4B
:101DD000DC01ED91FC910280F381E02D0994611505
:101DE000710511F00C94E00E90E080E008950895E4
:101DF0001092810010928000109282001092850053
:101E000010928400611520E1720781059105A0F40C
:101E1000E4E0660F771FEA95E1F76150710981E010
:101E200092E096BB90936F00709389006093880056
:101E30008860809381000895611520E8720781050C
:101E4000910530F4660F771F6150710982E0E8CF89
:101E50006C3F2FEF720723E08207910558F442E0B0
:101E600096958795779567954A95D1F76150710951
:101E700083E0D6CF6115710520E18207910558F402
:101E800034E096958795779567953A95D1F76150A7
:101E9000710984E0C5CF26E096958795779567957B
:101EA0002A95D1F76150710985E0BACF7F928F9260
:101EB0009F92AF92BF92CF92DF92EF92FF920F93D9
:101EC0001F93CF93DF9300D0CDB7DEB70091B80159
:101ED0001091B9019FB7F894D80118962D913C91B3
:101EE000232B99F09FBF81E090E00F900F90DF913E
:101EF000CF911F910F91FF90EF90DF90CF90BF9007
:101F0000AF909F908F907F90089527E834E13A83B7
:101F10002983C090BA01D090BB0121E030E0F801E4
:101F2000318720878287E091BC01F091BD0124E0D8
:101F3000829FC0011124E80FF91FA280B380F12C09
:101F4000E12C4F0186E0782EEA14FB04E1F4F8015D
:101F500080859185019721F482E090E091878087C8
:101F6000D80118968D919C91029751F4F6016281E7
:101F70007381AB01C6010E94D000C6010E945B11B3
:101F800090E080E0B2CFD401ED91FC917E9CC00145
:101F90007F9C900D1124E80FF91FA081B18124814D
:101FA000358142815381BD0112968D919C910E9491
:101FB000F413BFEFEB1AFB0AC7CFE091B801F09121
:101FC000B901A081B1818785882319F0178685859D
:101FD0008FBF8189882311F0118A78948FB7F89484
:101FE0006FE674E112968D919C910E94F000CF9360
:101FF00090E02091B2013091B3018217930718F558
:102000002091B0013091B101880F991F820F931F69
:10201000FC0180819181CFB7F8940E942E13E0914A
:10202000B801F091B9010190F081E02D8781908590
:10203000029720F486EA91E00E946812CFBF90E0F8
:1020400080E0CF91089583E090E0FBCFDC0114960F
:10205000ED91FC9184E090E0938382830895EC01FC
:10206000EC81FD81818124E030E0338322838F3F46
:1020700009F07894E985FA850995E091B801F09125
:10208000B901108A8785882319F0178685858FBF47
:102090008189882311F0118A78948FB7F8948F8101
:1020A0009885EC81FD81029709F5A481B58110978F
:1020B00031F46FE674E18A819B810E94F0000D90FB
:1020C000BC91A02D14961C921E9213978D919C91F9
:1020D00095838483EACF0D90BC91A02D14961C9219
:1020E0001E9213978D919C9195838483A481B581D1
:1020F000109789F7DECFE091B801F091B9018085A2
:1021000091850297E1F38091BA019091BB010C9403
:1021100054140F931F93CF93DF93EC01A881B981DF
:10212000EB01E881F9811696CD91DC911797209704
:10213000C1F18A819B81309709F43FC0EC010C8189
:102140001D8122813381E9014C815D81E801398162
:10215000EA012981321788F522E030E0E8013B836B
:102160002A8320813181EB0139832883C281D38185
:102170002C813D8116964D915C9117975183408338
:102180001796FC93EE931697CD93DC934C85F9014B
:102190005181541708F44183DF91CF911F910F9122
:1021A0000895309751F0EC018A819B81EC014C81BC
:1021B0005D8122E030E0EA01D2CF90E080E0ECCF18
:1021C000CF93DF93DB011296ED91FC914115510500
:1021D000A1F02385DC01ED91FC91B0E0A0E0309707
:1021E00089F4109709F16D937C9390E080E0DB0116
:1021F000ED93FC93DF91CF9108950480F581E02D5C
:102200002181E8CFC281D3814115510541F03B8541
:10221000321738F3DF010190F081E02DE0CF0C8020
:10222000DD81C02D3981F4CFDC016D937C9381E099
:1022300090E0DDCFFB015383428341E050E00C94FA
:10224000E010EF92FF920F931F93CF93DF938C01D7
:10225000FC01C081D181EE80FF80F70180819181F6
:102260009F838E83C8010E948910892B41F4EE81DF
:10227000FF81309761F08281938199838883C701C0
:10228000DF91CF911F910F91FF90EF900895F8018A
:10229000F2CFDC011496ED91FC91159790811D967B
:1022A0008C91981728F49F5F908390E080E00895C8
:1022B00084E090E00895DC011496ED91FC9115976F
:1022C0001B968C918183808181508083811103C012
:1022D00013821282089581E090E0938382830895AF
:1022E000DC011496ED91FC9180859185862B972BCE
:1022F00091878087DA011D921C92868197816823DD
:102300007923672B39F082859385009729F013860E
:102310001286089590E080E00895E091A801F09180
:10232000A90190E0880F991FE80FF91F6081718162
:10233000DB011496ED91FC9180818F5F808350E0EA
:1023400040E086EA91E00C948312AB01FB01A4818A
:10235000B581E091B801F091B90112968D919C91EF
:102360001397892B51F481E090E013969C938E9300
:10237000129719961C921E921897A481B5818D917F
:102380009C9111979583848311961C921E92BD0196
:10239000CF0102960C941A110F931F93CF93DF93E2
:1023A000DB0112964D915C91FA01C481D5810091B7
:1023B000B8011091B90182E090E09B838A83838504
:1023C0008983C80102960E941A11019791F4D801DD
:1023D000ED91FC910480F581E02D81E090E0398160
:1023E0002181231708F080E0DF91CF911F910F9199
:1023F000089580E090E0F8CFAF92BF92CF92DF9245
:10240000EF92FF920F931F93CF93DF93C091B80188
:10241000D091B901FE01E190F1906F01F7010481C3
:102420001581FB01F182E082F8018281938104979A
:1024300031F5B60188EB91E00E9421115C01C88062
:10244000D980EC14FD04B1F0C7010E945B118C81AE
:102450009D81F50191838083BD82AC82C601DF91AD
:10246000CF911F910F91FF90EF90DF90CF90BF9091
:10247000AF900895F801808181508083E8CF6E810C
:102480007F81FB01808191819F838E83F70183850A
:10249000F801818381E090E09383828380818130A1
:1024A00011F411861086A701C6010E941A11B60107
:1024B00088EB91E00E948910892B39F4EE81FF812D
:1024C000C280D380D982C882C9CFC880D980C6CF04
:1024D000CF93DF93C091B801D091B901BE016E5F77
:1024E0007F4F88EB91E00E948910009749F0688146
:1024F00079810E942E1481E090E0DF91CF910895C0
:1025000090E080E0FACFCF93DF93E091B801F091B3
:10251000B9018081918126813781EC01AC81BD8137
:102520001296CD91DC911397249731F4C2E0D0E05C
:102530001396DC93CE9312977183608341155105F6
:10254000B9F4A481B5814D915C9111975583448371
:1025500011961C921E92B783A6830680F781E02D08
:102560007383628331832083DF91CF910C942E1487
:1025700057834683F2CFAF92BF92CF92DF92EF9212
:10258000FF920F931F93CF93DF93DC01AD90BC902C
:10259000E501E881F9812A813B81DB01CD90DC9066
:1025A000E6015B834A8381E090E0B0E0A0E03097F1
:1025B00011F00097A9F4109779F10D90BC91A02D1E
:1025C0006D937C93E601F983E883DF91CF911F91AE
:1025D0000F91FF90EF90DF90CF90BF90AF90089554
:1025E00000811181E801EA80FB802E153F0558F437
:1025F0004E155F0518F42417350758F0DF01E80180
:10260000E881F981D4CF2417350718F04E155F05FE
:10261000A8F790E080E0CBCFD501D2CFCF93DF9366
:10262000DC011296ED91FC9113970D90BC91A02DB9
:1026300012962D913C91DF01A41BB50BA217B30795
:1026400030F0420F531FDF91CF910C94BB124150D9
:102650005109420F531F4E1B5F0BF5CF8F929F9274
:10266000AF92BF92CF92DF92EF92FF920F931F93A0
:10267000CF93DF9300D0CDB7DEB7DC01CD90DC90F7
:102680001197F6012281338112964D915C912417A6
:10269000350708F471C01382128230E020E0F601A1
:1026A000008111810115110509F457C0D801ED9180
:1026B000FC911197428153814217530709F04DC095
:1026C00023E0E22EF12C2D913C91F901F582E48278
:1026D000A081B181109749F06D917C911197FB0118
:1026E000628173814617570771F37C01F9011182EA
:1026F0001082F601B183A08382E0C82ED12CD801CC
:10270000ED91FC911197A080B1801A8219821C96DC
:102710008D919C911D978130910509F442C088F1FB
:102720008230910509F452C0039709F455C0D801CD
:10273000ED91FC9184819581039761F446815781E5
:102740004115510509F44DC0D582C482B801C701B5
:102750000E940E138501AB2891F60F900F90DF9128
:10276000CF911F910F91FF90EF90DF90CF90BF908E
:10277000AF909F908F9008952F5F3F4F33832283B8
:102780008ECFF80186809780C4010E9449119A83F8
:102790008983892B61F6B40186EA91E00E94A51134
:1027A000C6CF1A966D917C911B97AE014F5F5F4F1C
:1027B00016968D919C910E947011009709F4B7CFE5
:1027C000BC0186EA91E00E94CC11B1CFF80180856E
:1027D00091850E942E13ABCF1496ED91FC91099533
:1027E000A6CF15821482B6CFCF93DF93DB01ED9194
:1027F000FC91A481B581A230B10568F537832683A9
:10280000119711F5EC012A813B81A881B9811296BB
:102810008D919C91B901641B750B6817790768F05D
:10282000480F591F5383428384E090E0958384834B
:1028300090E080E0DF91CF91089541505109480F19
:10284000591F421B530BEECF22E030E03583248327
:102850000E940E13EDCF87E090E0ECCFFB01DC018E
:1028600012964D915C9162817381A481B58112961B
:102870008D919C91029719F4CF010C948800CF019F
:102880000C94D000CB01DB0112966D917C911397D3
:102890001496ED91FC91228133812230310511F49F
:1028A0000C94A8000C94C800DC0112966D917C91E8
:1028B0001397ED91FC9140815181DB01ED91FC91E9
:1028C000228933892115310519F04217530729F45C
:1028D000DB01ED93FC930C94A800F901F1CFCF93A9
:1028E000DF9300D0CDB7DEB7BE016F5F7F4F86EAC2
:1028F00091E00E94FC11BC0189819A810E944214DE
:102900000F900F90DF91CF910895F894FFCFEAE0F8
:1029100008958F939F9380E00E9491149F918F91CF
:1029200018951F920F920FB60F9211242F933F9379
:102930004F935F936F937F93AF93BF93EF93FF9307
:102940000E948D11FF91EF91BF91AF917F916F9197
:102950005F914F913F912F910F900FBE0F901F905D
:102960000895A1E21A2EAA1BBB1BFD010DC0AA1FD0
:10297000BB1FEE1FFF1FA217B307E407F50720F0E8
:10298000A21BB30BE40BF50B661F771F881F991F63
:102990001A9469F760957095809590959B01AC01AC
:1029A000BD01CF010895EE0FFF1F0590F491E02DBA
:1029B000099481E090E0F8940C94BF17AEE0B0E089
:1029C000E4EEF4E10C9496178C01FA0186E08C8316
:1029D0001A83098377FF02C060E070E861507109D3
:1029E0007E836D83A901BF01CE0101960E940A1565
:1029F0004D815E8157FD0AC02F81388542175307EC
:102A00000CF49A01020F131FF80110822E96E4E0D5
:102A10000C94B217ABE0B0E0E0E1F5E10C9488175C
:102A20007C013B018A01FC0117821682838181FFB0
:102A3000C8C1CE0101965C01F7019381F30193FDBA
:102A4000859193FF81913F01882309F453C1853219
:102A500039F493FD859193FF81913F01853229F4EB
:102A6000B70190E00E94FA16E7CF912C212C312C6F
:102A7000FFE1F31538F08B3211F190F4803209F157
:102A8000833229F137FC3CC020ED280F2A3050F565
:102A900036FE20C08AE0989E200D1124922E06C09A
:102AA0008D3291F0803371F7689430F8F30193FD23
:102AB000859193FF81913F018111DACF21C0689404
:102AC00031F8689432F8F2CF689433F8EFCF689415
:102AD00034F8ECCFEAE02E9E200D1124222E6894CB
:102AE00035F8E4CF8E3229F436FC04C1689436F808
:102AF000DDCF8C3619F4689437F8D8CF8836B1F228
:102B0000982F9F7D95549330E0F08336A1F1833761
:102B1000C1F1833509F063C02801F2E04F0E511C6A
:102B2000F801C080D180692D70E036FC02C06FEFE3
:102B30007FEFC6010E94E4164C01689437F88201C9
:102B40000AC00C5F1F4FFFE3F98388248394912C04
:102B50006501E89437F833FE2DC0522C811491049E
:102B600071F5552009F468CFB70180E290E00E942A
:102B7000FA165A94F6CFF801808189830E5F1F4FB1
:102B8000E4CF2801F2E04F0E511CF801C080D18043
:102B9000692D70E036FC02C06FEF7FEFC6010E9426
:102BA000EF164C018201D5CFB70180E290E00E9480
:102BB000FA162A942814190409F0B0F7CECFF601BA
:102BC00037FC859137FE81916F01B70190E00E943B
:102BD000FA1651105A94F1E08F1A9108BFCF84363B
:102BE00019F0893609F077C0F80137FE6BC06081B3
:102BF0007181828193810C5F1F4FF32DFF763F2EF1
:102C000097FF09C090958095709561957F4F8F4F84
:102C10009F4F689437F82AE030E0A5010E942A17F8
:102C2000C82ECA188C2C432C36FE0CC0E89440F8F1
:102C3000C91440F434FE05C032FC03C0F32DFE7EFF
:102C40004F2E892C44FE95C0FE01EC0DF11D8081B4
:102C5000803309F087C0242D297E422E842D887070
:102C6000582E43FC95C040FE8FC09C2C821418F453
:102C70002C0C922C981844FE91C0B70180E390E090
:102C80000E94FA1642FE09C088E790E041FE02C0A9
:102C900088E590E0B7010E94FA16C91408F48AC0CA
:102CA000CA94D12C9FEFC91AD90ACA0CDB1CF601B1
:102CB00082916F01B70190E00E94FA16AC14BD0436
:102CC000B1F74FCF60817181072E000C880B990BF3
:102CD0000E5F1F4F92CFD32CE894D4F82AE030E057
:102CE000853739F1232D297FD22E8F3601F148F413
:102CF0008835A9F0F701868197812B96E2E10C9443
:102D0000A417803749F08837A9F7D4FE02C0689429
:102D1000D2F820E130E00DC06894D4F8F6CF34FE4C
:102D200003C0822F8660D82E20E132E002C028E066
:102D300030E0F801D7FE0FC06081718182819381FC
:102D40000C5F1F4FA5010E942A17C82ECA183D2CE0
:102D5000E89437F867CF6081718190E080E00E5F82
:102D60001F4FF0CF42FC02C0839478CF83948394AA
:102D700075CF842D867809F471CFF6CFB70180E244
:102D800090E00E94FA1683948214C0F3512C73CF02
:102D9000522C5818821408F46ECFF8CF842D867800
:102DA00009F47BCF8BE241FE80E247FC8DE2B70164
:102DB00090E071CFB70180E390E00E94FA169A94F8
:102DC0006CCF8FEF9FEF99CFFC0105906150704061
:102DD0000110D8F7809590958E0F9F1F0895FC01E4
:102DE0006150704001900110D8F7809590958E0F3A
:102DF0009F1F08950F931F93CF93DF93182F092FD1
:102E0000EB018B8181FD09C01FEF0FEF812F902F08
:102E1000DF91CF911F910F91089582FF14C02E81F1
:102E20003F818C819D81281739073CF4E881F98125
:102E3000CF0101969983888310838E819F810196AB
:102E40009F838E83E3CFE885F985812F0995892BB0
:102E5000A1F3DACFFA01AA27283051F1203181F10C
:102E6000E8946F936E7F6E5F7F4F8F4F9F4FAF4F92
:102E7000B1E03ED0B4E03CD0670F781F891F9A1FA5
:102E8000A11D680F791F8A1F911DA11D6A0F711D59
:102E9000811D911DA11D20D009F468943F912AE065
:102EA000269F11243019305D3193DEF6CF0108954D
:102EB000462F4770405D4193B3E00FD0C9F7F6CF7E
:102EC000462F4F70405D4A3318F0495D31FD405246
:102ED000419302D0A9F7EACFB4E0A69597958795DC
:102EE00077956795BA95C9F70097610571050895BB
:102EF0009B01AC010A2E0694579547953795279567
:102F0000BA95C9F7620F731F841F951FA01D0895FE
:102F10002F923F924F925F926F927F928F929F92E9
:102F2000AF92BF92CF92DF92EF92FF920F931F93D7
:102F3000CF93DF93CDB7DEB7CA1BDB0B0FB6F89488
:102F4000DEBF0FBECDBF09942A88398848885F84C8
:102F50006E847D848C849B84AA84B984C884DF8039
:102F6000EE80FD800C811B81AA81B981CE0FD11D1D
:102F70000FB6F894DEBF0FBECDBFED010895F894F3
:022F8000FFCF81
:102F820009020000120100000000FF000000000022
:102F92000000160100000000000000800000000098
:102FA200000000000000000100000000000000001E
:102FB20000000100040000000000000000002D2DB0
:102FC2002D2D2D2D2D2D2D2D2D2D2D2D2D2D2D2D2F
:102FD2002D2D2D2D2D2D2D2D2D2D2D2D2D2D2D2D1F
:102FE2002D2D2D2D2D2D2D2D2D2D2D2D2D2D2D2D0F
:102FF2000A0047657420646174612066726F6D20F7
:103002004944203A202578200A00257820202020D3
:1030120000696E6974206661696C0A0043414E2042
:10302200696E69740A008C03E7010300E201010082
:10303200DA010100CA01010000010902C001010018
:10304200C4010100CC0105000100CC01C602DC0173
:103052000000FB01000000000000DC01CE02FFFFC7
:103062000100E401D20201ED01FB0109021702D7BE
:10307200021A0100020030018080011702D70226E5
:103082000101000033010101011702D702320102DE
:1030920003007B100000010000000004104004083F
:1030A20010310000004100000000000000513040DB
:1030B2005000000000BC032A0230024307AB07F0B5
:1030C200072E0408051D053205610366038A041BE9
:1030D2000932026202910AEE09460B350471048F2D
:1030E200029C0238053D04750300000000FE0CFE40
:1030F2000CFE0CFE0CFE0CFE0CFE0CFE0CFE0CFE7E
:103102000CFE0CFE0CFE0CFE0CFE0CFE0CFE0CFE6D
:103112000CFE0CFE0CFE0CFE0CFE0CFE0CFE0CFE5D
:103122000C000000007F0DB30E2E0D5F0D000D1A76
:043132000D0C0D0073
:00000001FF
